{
    "contractName": "ChainList",
    "abi": [
        {
            "inputs": [],
            "name": "getArticle",
            "outputs": [
                {
                    "internalType": "address",
                    "name": "_seller",
                    "type": "address"
                },
                {
                    "internalType": "string",
                    "name": "_name",
                    "type": "string"
                },
                {
                    "internalType": "string",
                    "name": "_description",
                    "type": "string"
                },
                {
                    "internalType": "uint256",
                    "name": "_price",
                    "type": "uint256"
                }
            ],
            "stateMutability": "view",
            "type": "function"
        },
        {
            "inputs": [
                {
                    "internalType": "string",
                    "name": "_name",
                    "type": "string"
                },
                {
                    "internalType": "string",
                    "name": "_description",
                    "type": "string"
                },
                {
                    "internalType": "uint256",
                    "name": "_price",
                    "type": "uint256"
                }
            ],
            "name": "sellArticle",
            "outputs": [],
            "stateMutability": "nonpayable",
            "type": "function"
        }
    ],
    "bytecode": "608060405234801561001057600080fd5b506104d2806100206000396000f3fe608060405234801561001057600080fd5b50600436106100365760003560e01c8063c37218a61461003b578063d26095151461005c575b600080fd5b610043610071565b6040516100539493929190610237565b60405180910390f35b61006f61006a3660046102c8565b6101ba565b005b600060608060008060009054906101000a90046001600160a01b0316600160026003548280546100a09061033c565b80601f01602080910402602001604051908101604052809291908181526020018280546100cc9061033c565b80156101195780601f106100ee57610100808354040283529160200191610119565b820191906000526020600020905b8154815290600101906020018083116100fc57829003601f168201915b5050505050925081805461012c9061033c565b80601f01602080910402602001604051908101604052809291908181526020018280546101589061033c565b80156101a55780601f1061017a576101008083540402835291602001916101a5565b820191906000526020600020905b81548152906001019060200180831161018857829003601f168201915b50505050509150935093509350935090919293565b600080546001600160a01b0319163317905560016101d98587836103db565b5060026101e78385836103db565b5060035550505050565b6000815180845260005b81811015610217576020818501810151868301820152016101fb565b506000602082860101526020601f19601f83011685010191505092915050565b6001600160a01b038516815260806020820181905260009061025b908301866101f1565b828103604084015261026d81866101f1565b91505082606083015295945050505050565b60008083601f84011261029157600080fd5b50813567ffffffffffffffff8111156102a957600080fd5b6020830191508360208285010111156102c157600080fd5b9250929050565b6000806000806000606086880312156102e057600080fd5b853567ffffffffffffffff808211156102f857600080fd5b61030489838a0161027f565b9097509550602088013591508082111561031d57600080fd5b5061032a8882890161027f565b96999598509660400135949350505050565b600181811c9082168061035057607f821691505b60208210810361037057634e487b7160e01b600052602260045260246000fd5b50919050565b634e487b7160e01b600052604160045260246000fd5b601f8211156103d657600081815260208120601f850160051c810160208610156103b35750805b601f850160051c820191505b818110156103d2578281556001016103bf565b5050505b505050565b67ffffffffffffffff8311156103f3576103f3610376565b61040783610401835461033c565b8361038c565b6000601f84116001811461043b57600085156104235750838201355b600019600387901b1c1916600186901b178355610495565b600083815260209020601f19861690835b8281101561046c578685013582556020948501946001909201910161044c565b50868210156104895760001960f88860031b161c19848701351681555b505060018560011b0183555b505050505056fea2646970667358221220a4f7d9543a5fe38f39474f2d0e2e46d6fea5334e527c0eff18efb655d4e5992164736f6c63430008110033",
    "sourcePath": "d:/ncc/kryptohub-training/chainskills/training-use-truffle/contracts/ChainList.sol",
    "compiler": {
        "name": "solc",
        "version": "0.8.17+commit.8df45f5f"
    },
    "functionHashes": {
        "getArticle()": "c37218a6",
        "sellArticle(string,string,uint256)": "d2609515"
    },
    "gasEstimates": {
        "creation": {
            "codeDepositCost": "246800",
            "executionCost": "287",
            "totalCost": "247087"
        },
        "external": {
            "getArticle()": "infinite",
            "sellArticle(string,string,uint256)": "infinite"
        }
    }
}