{
    "contractName": "Greetings",
    "abi": [
        {
            "inputs": [],
            "stateMutability": "nonpayable",
            "type": "constructor"
        },
        {
            "inputs": [],
            "name": "getGreetings",
            "outputs": [
                {
                    "internalType": "string",
                    "name": "",
                    "type": "string"
                }
            ],
            "stateMutability": "view",
            "type": "function"
        },
        {
            "inputs": [
                {
                    "internalType": "string",
                    "name": "_message",
                    "type": "string"
                }
            ],
            "name": "setGreetings",
            "outputs": [],
            "stateMutability": "nonpayable",
            "type": "function"
        }
    ],
    "bytecode": "608060405234801561001057600080fd5b5060408051808201909152600b81526a4920616d2072656164792160a81b602082015260009061004090826100e5565b506101a4565b634e487b7160e01b600052604160045260246000fd5b600181811c9082168061007057607f821691505b60208210810361009057634e487b7160e01b600052602260045260246000fd5b50919050565b601f8211156100e057600081815260208120601f850160051c810160208610156100bd5750805b601f850160051c820191505b818110156100dc578281556001016100c9565b5050505b505050565b81516001600160401b038111156100fe576100fe610046565b6101128161010c845461005c565b84610096565b602080601f831160018114610147576000841561012f5750858301515b600019600386901b1c1916600185901b1785556100dc565b600085815260208120601f198616915b8281101561017657888601518255948401946001909101908401610157565b50858210156101945787850151600019600388901b60f8161c191681555b5050505050600190811b01905550565b610367806101b36000396000f3fe608060405234801561001057600080fd5b50600436106100365760003560e01c806349da5de41461003b578063ca4c3a4114610050575b600080fd5b61004e610049366004610112565b61006e565b005b610058610080565b6040516100659190610184565b60405180910390f35b600061007b828483610270565b505050565b60606000805461008f906101e8565b80601f01602080910402602001604051908101604052809291908181526020018280546100bb906101e8565b80156101085780601f106100dd57610100808354040283529160200191610108565b820191906000526020600020905b8154815290600101906020018083116100eb57829003601f168201915b5050505050905090565b6000806020838503121561012557600080fd5b823567ffffffffffffffff8082111561013d57600080fd5b818501915085601f83011261015157600080fd5b81358181111561016057600080fd5b86602082850101111561017257600080fd5b60209290920196919550909350505050565b600060208083528351808285015260005b818110156101b157858101830151858201604001528201610195565b506000604082860101526040601f19601f8301168501019250505092915050565b634e487b7160e01b600052604160045260246000fd5b600181811c908216806101fc57607f821691505b60208210810361021c57634e487b7160e01b600052602260045260246000fd5b50919050565b601f82111561007b57600081815260208120601f850160051c810160208610156102495750805b601f850160051c820191505b8181101561026857828155600101610255565b505050505050565b67ffffffffffffffff831115610288576102886101d2565b61029c8361029683546101e8565b83610222565b6000601f8411600181146102d057600085156102b85750838201355b600019600387901b1c1916600186901b17835561032a565b600083815260209020601f19861690835b8281101561030157868501358255602094850194600190920191016102e1565b508682101561031e5760001960f88860031b161c19848701351681555b505060018560011b0183555b505050505056fea26469706673582212206b4788627068ddb1b371801f38080ba44d5c84a8ff3223f1bd821360dd99cf9f64736f6c63430008110033",
    "sourcePath": "d:/ncc/kryptohub-training/chainskills/training-use-truffle/contracts/Greetings.sol",
    "compiler": {
        "name": "solc",
        "version": "0.8.17+commit.8df45f5f"
    },
    "functionHashes": {
        "getGreetings()": "ca4c3a41",
        "setGreetings(string)": "49da5de4"
    },
    "gasEstimates": {
        "creation": {
            "codeDepositCost": "174200",
            "executionCost": "infinite",
            "totalCost": "infinite"
        },
        "external": {
            "getGreetings()": "infinite",
            "setGreetings(string)": "infinite"
        }
    }
}