{
  "contractName": "ChainList",
  "abi": [
    {
      "inputs": [],
      "stateMutability": "nonpayable",
      "type": "constructor"
    },
    {
      "anonymous": false,
      "inputs": [
        {
          "indexed": false,
          "internalType": "string",
          "name": "msg",
          "type": "string"
        }
      ],
      "name": "DCM",
      "type": "event"
    },
    {
      "anonymous": false,
      "inputs": [
        {
          "indexed": true,
          "internalType": "address",
          "name": "_seller",
          "type": "address"
        },
        {
          "indexed": false,
          "internalType": "string",
          "name": "_name",
          "type": "string"
        },
        {
          "indexed": false,
          "internalType": "uint256",
          "name": "_price",
          "type": "uint256"
        }
      ],
      "name": "LogSellArticle",
      "type": "event"
    },
    {
      "inputs": [
        {
          "internalType": "string",
          "name": "_name",
          "type": "string"
        },
        {
          "internalType": "string",
          "name": "_description",
          "type": "string"
        },
        {
          "internalType": "uint256",
          "name": "_price",
          "type": "uint256"
        }
      ],
      "name": "sellArticle",
      "outputs": [],
      "stateMutability": "nonpayable",
      "type": "function"
    },
    {
      "inputs": [],
      "name": "getArticle",
      "outputs": [
        {
          "internalType": "address",
          "name": "_seller",
          "type": "address"
        },
        {
          "internalType": "string",
          "name": "_name",
          "type": "string"
        },
        {
          "internalType": "string",
          "name": "_description",
          "type": "string"
        },
        {
          "internalType": "uint256",
          "name": "_price",
          "type": "uint256"
        }
      ],
      "stateMutability": "view",
      "type": "function",
      "constant": true
    }
  ],
  "bytecode": "0x60806040523480156200001157600080fd5b506040518060200160405280600081525060019081620000329190620002bb565b506000600381905550620003a2565b600081519050919050565b7f4e487b7100000000000000000000000000000000000000000000000000000000600052604160045260246000fd5b7f4e487b7100000000000000000000000000000000000000000000000000000000600052602260045260246000fd5b60006002820490506001821680620000c357607f821691505b602082108103620000d957620000d86200007b565b5b50919050565b60008190508160005260206000209050919050565b60006020601f8301049050919050565b600082821b905092915050565b600060088302620001437fffffffffffffffffffffffffffffffffffffffffffffffffffffffffffffffff8262000104565b6200014f868362000104565b95508019841693508086168417925050509392505050565b6000819050919050565b6000819050919050565b60006200019c62000196620001908462000167565b62000171565b62000167565b9050919050565b6000819050919050565b620001b8836200017b565b620001d0620001c782620001a3565b84845462000111565b825550505050565b600090565b620001e7620001d8565b620001f4818484620001ad565b505050565b5b818110156200021c5762000210600082620001dd565b600181019050620001fa565b5050565b601f8211156200026b576200023581620000df565b6200024084620000f4565b8101602085101562000250578190505b620002686200025f85620000f4565b830182620001f9565b50505b505050565b600082821c905092915050565b6000620002906000198460080262000270565b1980831691505092915050565b6000620002ab83836200027d565b9150826002028217905092915050565b620002c68262000041565b67ffffffffffffffff811115620002e257620002e16200004c565b5b620002ee8254620000aa565b620002fb82828562000220565b600060209050601f8311600181146200033357600084156200031e578287015190505b6200032a85826200029d565b8655506200039a565b601f1984166200034386620000df565b60005b828110156200036d5784890151825560018201915060208501945060208101905062000346565b868310156200038d578489015162000389601f8916826200027d565b8355505b6001600288020188555050505b505050505050565b61092080620003b26000396000f3fe608060405234801561001057600080fd5b50600436106100365760003560e01c8063c37218a61461003b578063d26095151461005c575b600080fd5b610043610078565b604051610053949392919061039d565b60405180910390f35b6100766004803603810190610071919061048b565b6101ce565b005b600060608060008060009054906101000a900473ffffffffffffffffffffffffffffffffffffffff16600160026003548280546100b49061054f565b80601f01602080910402602001604051908101604052809291908181526020018280546100e09061054f565b801561012d5780601f106101025761010080835404028352916020019161012d565b820191906000526020600020905b81548152906001019060200180831161011057829003601f168201915b505050505092508180546101409061054f565b80601f016020809104026020016040519081016040528092919081815260200182805461016c9061054f565b80156101b95780601f1061018e576101008083540402835291602001916101b9565b820191906000526020600020905b81548152906001019060200180831161019c57829003601f168201915b50505050509150935093509350935090919293565b336000806101000a81548173ffffffffffffffffffffffffffffffffffffffff021916908373ffffffffffffffffffffffffffffffffffffffff16021790555084846001918261021f929190610766565b50828260029182610231929190610766565b508060038190555060008054906101000a900473ffffffffffffffffffffffffffffffffffffffff1673ffffffffffffffffffffffffffffffffffffffff167f02bce32b00112077eb590edcbfae020c674b22a31691eadef8ec7c17541e83cc60016003546040516102a49291906108ba565b60405180910390a25050505050565b600073ffffffffffffffffffffffffffffffffffffffff82169050919050565b60006102de826102b3565b9050919050565b6102ee816102d3565b82525050565b600081519050919050565b600082825260208201905092915050565b60005b8381101561032e578082015181840152602081019050610313565b60008484015250505050565b6000601f19601f8301169050919050565b6000610356826102f4565b61036081856102ff565b9350610370818560208601610310565b6103798161033a565b840191505092915050565b6000819050919050565b61039781610384565b82525050565b60006080820190506103b260008301876102e5565b81810360208301526103c4818661034b565b905081810360408301526103d8818561034b565b90506103e7606083018461038e565b95945050505050565b600080fd5b600080fd5b600080fd5b600080fd5b600080fd5b60008083601f84011261041f5761041e6103fa565b5b8235905067ffffffffffffffff81111561043c5761043b6103ff565b5b60208301915083600182028301111561045857610457610404565b5b9250929050565b61046881610384565b811461047357600080fd5b50565b6000813590506104858161045f565b92915050565b6000806000806000606086880312156104a7576104a66103f0565b5b600086013567ffffffffffffffff8111156104c5576104c46103f5565b5b6104d188828901610409565b9550955050602086013567ffffffffffffffff8111156104f4576104f36103f5565b5b61050088828901610409565b9350935050604061051388828901610476565b9150509295509295909350565b7f4e487b7100000000000000000000000000000000000000000000000000000000600052602260045260246000fd5b6000600282049050600182168061056757607f821691505b60208210810361057a57610579610520565b5b50919050565b600082905092915050565b7f4e487b7100000000000000000000000000000000000000000000000000000000600052604160045260246000fd5b60008190508160005260206000209050919050565b60006020601f8301049050919050565b600082821b905092915050565b60006008830261061c7fffffffffffffffffffffffffffffffffffffffffffffffffffffffffffffffff826105df565b61062686836105df565b95508019841693508086168417925050509392505050565b6000819050919050565b600061066361065e61065984610384565b61063e565b610384565b9050919050565b6000819050919050565b61067d83610648565b6106916106898261066a565b8484546105ec565b825550505050565b600090565b6106a6610699565b6106b1818484610674565b505050565b5b818110156106d5576106ca60008261069e565b6001810190506106b7565b5050565b601f82111561071a576106eb816105ba565b6106f4846105cf565b81016020851015610703578190505b61071761070f856105cf565b8301826106b6565b50505b505050565b600082821c905092915050565b600061073d6000198460080261071f565b1980831691505092915050565b6000610756838361072c565b9150826002028217905092915050565b6107708383610580565b67ffffffffffffffff8111156107895761078861058b565b5b610793825461054f565b61079e8282856106d9565b6000601f8311600181146107cd57600084156107bb578287013590505b6107c5858261074a565b86555061082d565b601f1984166107db866105ba565b60005b82811015610803578489013582556001820191506020850194506020810190506107de565b86831015610820578489013561081c601f89168261072c565b8355505b6001600288020188555050505b50505050505050565b600081546108438161054f565b61084d81866102ff565b94506001821660008114610868576001811461087e576108b1565b60ff1983168652811515602002860193506108b1565b610887856105ba565b60005b838110156108a95781548189015260018201915060208101905061088a565b808801955050505b50505092915050565b600060408201905081810360008301526108d48185610836565b90506108e3602083018461038e565b939250505056fea26469706673582212206903b2976468dc45eab79be19e3a5a752ebd98bcb2a46b13e6ea43b9549b162f64736f6c63430008110033",
  "immutableReferences": {},
  "source": "// SPDX-License-Identifier: GPL-3.0\r\npragma solidity >=0.4.18;\r\n\r\ncontract ChainList{\r\n    //state variables\r\n\r\n    address seller;\r\n    string name;\r\n    string description;\r\n    uint256 price;\r\n\r\n    constructor(){\r\n        //seller = msg.sender;\r\n        // name = 'Default article';\r\n        // description = 'Default description of article';\r\n        // price = 2000000000000000000;\r\n        \r\n        name = '';        \r\n        price = 0;\r\n    }\r\n\r\n    //event\r\n    event LogSellArticle(\r\n        address indexed _seller,\r\n        string _name,\r\n        uint256 _price\r\n\r\n    );\r\n\r\n    event DCM(string msg);\r\n\r\n    function sellArticle(string calldata _name, string calldata _description, uint256 _price) public{\r\n        seller = msg.sender;\r\n        name = _name;\r\n        description = _description;\r\n        price = _price;\r\n\r\n        //emit DCM(_name);\r\n        emit LogSellArticle(seller, name, price);\r\n    }\r\n\r\n    function getArticle() public view returns (\r\n        address _seller,\r\n        string  memory _name,\r\n        string memory _description,\r\n        uint256 _price\r\n    ){        \r\n        return (seller, name, description, price);\r\n    }\r\n}",
  "sourcePath": "D:\\ncc\\kryptohub-training\\chainskills\\training-use-truffle\\contracts\\ChainList.sol",
  "compiler": {
    "name": "solc",
    "version": "0.8.17+commit.8df45f5f.Emscripten.clang"
  },
  "schemaVersion": "3.4.10",
  "updatedAt": "2022-11-27T14:58:22.798Z",
  "networkType": "ethereum",
  "devdoc": {
    "kind": "dev",
    "methods": {},
    "version": 1
  },
  "userdoc": {
    "kind": "user",
    "methods": {},
    "version": 1
  }
}